:020000040800F2
:10000000C00600202D02000831020008330200085B
:10001000350200083702000839020008000000001D
:100020000000000000000000000000003B0200088B
:100030003D020008000000003F02000841020008E5
:10004000430200084302000843020008430200087C
:100050004302000843020008190700084302000891
:100060005107000889070008B90700084302000883
:10007000430200084302000843020008430200084C
:10008000430200084302000843020008430200083C
:100090004302000843020008430200081D0800084C
:1000A000430200084302000843020008430200081C
:1000B00043020008D9490008054A00084302000825
:1000C00043020008430200084302000843020008FC
:1000D000430200082D4B00084302000843020008B9
:1000E00043020008430200084302000843020008DC
:1000F00043020008430200084302000843020008CC
:100100004302000843020008394A0008430200087D
:100110004302000843020008B14A000843020008F5
:10012000430200084302000843020008430200089B
:1001300000F002F800F06BF80AA090E8000C82448E
:100140008344AAF10107DA4501D100F060F8AFF26B
:10015000090EBAE80F0013F0010F18BFFB1A43F0A5
:1001600001031847A8800000C88000000A444FF02F
:10017000000C10F8013B13F0070408BF10F8014B06
:100180001D1108BF10F8015B641E05D010F8016B4B
:10019000641E01F8016BF9D113F0080F1EBF10F8AF
:1001A000014BAD1C0C1B09D16D1E58BF01F801CBD2
:1001B000FAD505E014F8016B01F8016B6D1EF9D555
:1001C0009142D6D37047000000230024002500266A
:1001D000103A28BF78C1FBD8520728BF30C148BFAA
:1001E0000B607047642900F09980752900F09680B3
:1001F000782900F0CF80632900F02382732900F072
:100200002882002070471FB51FBD10B510BD00F03B
:1002100053FA1146FFF7F7FF04F0F2FD00F071FA10
:1002200003B4FFF7F2FF03BC04F0B5FC0848004735
:10023000FEE7FEE7FEE7FEE7FEE7FEE7FEE7FEE796
:10024000FEE7FEE703480449024A044B70470000FA
:1002500031010008C0020020C0060020C0020020BA
:10026000704700000FB4044910B503AA029800F0CB
:10027000F5F910BC5DF814FB2C00002070B50446A5
:1002800085690068C10601D5302600E02026C00738
:1002900007D070BDD4E9012130469047206A401C48
:1002A00020626D1EF6D570BD70B504468569007874
:1002B000C00707D170BDD4E9012120209047206AF2
:1002C000401C20626D1EF6D570BD70B50C4605460B
:1002D000012A05D02878800600D5EA69002302E0CB
:1002E000012305E05B1C934202D2E05C0028F9D1B7
:1002F000A869E618C01AA861286A18442862284626
:10030000FFF7BCFF04E0D5E9012114F8010B904789
:10031000B442F8D32846FFF7C7FF70BD2DE9F0417E
:100320000646002410687529314616A510D0AFF393
:100330000080002802DA404213A507E031688A07EE
:1003400001D512A502E0490704D511A5012401E059
:10035000AFF3008000210A2206F1240709E0B0FB78
:10036000F2FCB0FBF2F302FB1C003030785418466C
:10037000491C0028F3D123462A463046BDE8F04107
:1003800000F0FCB8000000002D0000002B00000071
:100390002000000070B504460D4621461068AFF3FA
:1003A00000802188090502D50F4A7A4402E00E4AEE
:1003B0007A440E32002104F1240305E000F00F0618
:1003C0000009965D5E54491C0028F7D1207800236F
:1003D000000704D5702D02D009B102231132204646
:1003E000BDE8704000F0CAB81C7D00002DE9F05F48
:1003F000894604464FF0000ADFF874B1FB44C0F8A8
:1004000020A02046E1688847002874D0252806D01F
:10041000D4E901219047206A401C2062F1E70026C0
:100420005F462046E16888472028054607DB312DD6
:1004300005D2781910F8200C08B10643F1E7B0078F
:1004400001D526F00406C4F81CA00027C4F818A0A3
:100450002A2D09D0284604F097FB38B304EB87080F
:10046000303DC8F8185019E059F8041B204604EB39
:1004700087029161E1688847012F054618D1E0693C
:10048000002820DA26F020061DE0D8F8180000EB3E
:10049000800005EB40003038C8F818002046E168BD
:1004A0008847054604F070FB0028EED1012F0AD0E2
:1004B0002E2D08D12046E16888477F1C0546022F73
:1004C00046F02006C4DBA069002803DA404246F06B
:1004D0000106A061F00701D026F010066C2D0BD0AC
:1004E000682D09D04C2D39D06A2D35D0742D35D0DA
:1004F0007A2D33D016E038E0E1682F462046884751
:10050000B842054609D16C2F26D04FF48060E168CF
:10051000064320468847054604E06C2F1AD04FF466
:10052000807006430DB3A5F14100192802D820358B
:1005300046F400664A462946204626604E46FFF7A6
:1005400051FE80B101280BD0F61D26F0070000F106
:10055000080956E74020E4E78020D8E70020D6E7E6
:1005600006F104094DE7284652E7206ABDE8F09FEE
:10057000F27C000070477047704770472DE9F047E4
:100580000D4699469246044600F124080168880603
:1005900004D5E06921F01001216000E00120A842AB
:1005A00001DD471B00E00027A1697A1902EB090071
:1005B000081AA0612078C00602D42046FFF75EFE2C
:1005C000002608E0D4E901211AF806009047206AC5
:1005D000401C761C20624E45F4DB2078C0060AD50C
:1005E0002046FFF74BFE06E0D4E90121302090477A
:1005F000206A401C2062381EA7F10107F4DC07E0E6
:10060000D4E9012118F805009047206A401C2062B7
:10061000281EA5F10105F3DC2046FFF745FE2078F2
:10062000000602D50220BDE8F0870120FBE710B5E7
:10063000436913B1AFF3008001E0FFF746FE0120EC
:1006400010BD127800F124010A7000224A700122C4
:10065000EDE711684FF0FF32E9E70000074B70B596
:100660000D467B4400F011F80446284600F020F8BF
:1006700010B14FF0FF3070BD204670BD83470000C1
:1006800001694A1C02610878704700B58FB0CDE956
:1006900001310021059105497944CDE90310114646
:1006A0006846FFF7A3FE0FB000BD0000E5FFFFFFA7
:1006B000007B00F080007047754600F029F8AE46D8
:1006C00005006946534620F00700854618B020B55E
:1006D000FFF7B8FDBDE820404FF000064FF00007DF
:1006E0004FF000084FF0000B21F00701AC46ACE8DA
:1006F000C009ACE8C009ACE8C009ACE8C0098D4647
:1007000070470446AFF300802046FFF789FD0000E4
:10071000004870475C02002010B50A2004F03CFB42
:100720000848D0F80001012806D10749D1F8A001F6
:1007300030B10020C1F8A00104490120086010BDBB
:100740000120F7E70000214200802142140401400B
:1007500010B50A2004F020FB0848D0F8080130B991
:100760000749D1F8940130B10020C1F8940105493E
:100770000420086010BD0120F7E7000000002342BC
:10078000008021421404014010B50A2004F004FB4B
:100790000749D1F80C0128B9D1F8940130B10020F3
:1007A000C1F8940103490820086010BD0120F7E753
:1007B000000023421404014010B50A2004F0ECFAB2
:1007C0000C49D1F8100160B90B4AD2F8940160B11C
:1007D0000020C2F89401D1F8940140B10020C1F882
:1007E000940106491020086010BD0120F1E70120A6
:1007F000F5E700000000234200802142140401407C
:1008000010B502220821002000F032F8022317223E
:100810000021BDE81040084603F098BD30B50F4BED
:100820001868C00506D50E4A0E4C0020117829B173
:10083000C4F88C014FF48070186030BD0A49C1F8CB
:1008400098010A4D102028602D1F28600120C1F852
:100850009801C4F88C011070ECE70000140401400A
:10086000340000200080214200802242140C01400C
:1008700070B5144D8B088C07AE69240F46F0010645
:10088000AE619D00104B2B449E680F25A540AE43E2
:100890009E609D68A04005439D600C4B1C68012034
:1008A000884004431C60D10704D008490C310B6810
:1008B00003430B60910704D5044A083211680143D1
:1008C000116070BD001002400000014000040140B2
:1008D00041060748826942F0010282610548426888
:1008E00022F0E062426042680A43426070470000C2
:1008F00000100240000001401048816941F00401ED
:100900008161816941F0400181610D48016821F0F8
:100910000F010160016841F00801016009480168A8
:10092000094A114001600168084A11430160054805
:100930000C30016841F01C0101607047001002405A
:100940000008014000180140FF00F0FF0088080087
:100950002DE9F043174F0646002438887D8845432B
:10096000B888A0F5D041043902D1B879012807D060
:100970000021084603F092FA03F082FC0E4815E0CD
:100980000020B8714FF02A09A7F80A904FF02B0801
:10099000A7F80C80014603F081FA0120B871A7F88E
:1009A0000A80A7F80C90E7E70680641CAC42FBD3F2
:1009B000BDE8F0834C0200200008006C2DE9F04FE8
:1009C0004A492A232B24898845F2105A4FF4305B78
:1009D0004FF4285E4FF448754FF0F00C49F241395E
:1009E0004FF4A07745F210364FF4F07280B13F48D3
:1009F0004FF00108494580F806800780A0F802C042
:100A000001D0B1423ED12C2505814381848157E03C
:100A100036484FF00008494580F80680A0F800C02D
:100A2000478006D0A1F5D04CBCF1040C01D0B142F6
:100A30000CD12C2505814381A1F5D0438481043B51
:100A400001D0B14244D10780428041E0514507D1F5
:100A5000A0F808B0A0F80AE04FF42C5181810EE014
:100A6000A1F5C856633E06D0222101812021418193
:100A7000212181812CE02C2101814481838102800C
:100A8000458025E0A1F5D04CBCF1040C09D05145BE
:100A90000BD1A0F808B0A0F80AE04FF42C538381E2
:100AA00021E02C250581448109E0A1F5C85CBCF159
:100AB000630C12D0222303812123438120238381CD
:100AC000A1F5D043043B01D0B14201D1028047805F
:100AD000BDE8F04F002003F00DB94FF02C0CA0F84A
:100AE00008C04381848105804280E9E74C020020F0
:100AF0002DE9FE4F0026A2EB000882465F1A701E09
:100B000035468946B8F1000F02DD4FF0010102E0E1
:100B100003D14FF00001019102E0C8F100080190FB
:100B2000002F02DD4FF0010002E003D14FF0000082
:100B3000009002E0C7F1000700904046B84501DD93
:100B4000044600E03C46601C4FF0000B029015E0AC
:100B50001FFA89F11FFA8AF000F016F846443D4466
:100B6000A64202DD0199361B8A44A54202DD0099A6
:100B70002D1B89440BF101001FFA80FB02998B4564
:100B8000E6DDBDE8FE8F000000B503F087F903F055
:100B900077FB024802490088088000BD3000002031
:100BA0000008006CF0B51C4615460E4607460B467D
:100BB000FFF79EFF3A46234631461046FFF798FF5F
:100BC00023462A4619463846FFF792FF2A4623460F
:100BD0003146BDE8F0401046FFF78ABF2DE9FC4FD3
:100BE00080460024154603200F46A0EB450649E049
:100BF000781B81B208EB040A01901FFA8AF0FFF714
:100C0000C3FF381B81B208EB050900901FFA89F079
:100C1000FFF7BAFF07EB040B1FFA8BF11FFA89F0FD
:100C2000FFF7B2FF07EB05091FFA89F11FFA8AF0F7
:100C3000FFF7AAFFA8EB040A1FFA89F11FFA8AF04E
:100C4000FFF7A2FFA8EB05091FFA8BF11FFA89F045
:100C5000FFF79AFF019881B21FFA8AF0FFF794FF1D
:100C6000009881B21FFA89F0FFF78EFF641C002EF6
:100C700003DA06EB8406B61D04E0601B06EB800673
:100C80006D1E0A36AC42B3DDBDE8FC8F2DE9F04F96
:100C9000DFF80C81934642460B46B8F804500C0A24
:100CA000DFF800A19189060A5289A5F513470AF1D8
:100CB0000209413F18D0A5F5A647103F14D0B7F55B
:100CC00000771CD04746A5F5C85CBE793F883F1A1F
:100CD0007F1EBCF1630C27D0A5F5D04CBCF1040CF1
:100CE0003AD0012E4AD04AE0AAF800204A46A9F894
:100CF0000060C0B2A9F80000AAF800103AE0AAF813
:100D00000020A9F80060521CAAF80020C0B2A9F87F
:100D10000000AAF80010A9F80040491CAAF8001029
:100D2000D8B2A9F8000033E006B9B8B2AAF800209A
:100D3000050A4A46A9F80050C7B2A9F80070A9F8F8
:100D40000050C0B2A9F80000AAF80010A9F80040AD
:100D5000D8B2A9F800000DE0012E00D1B8B2AAF86F
:100D60000020050A4A46A9F80050C0B2A9F80000C0
:100D7000AAF800101480D8B2108009E0B8B2014679
:100D8000104603F087FAB8F80C00194603F082FA0F
:100D9000B8F80810AAF80010A9F800B0BDE8F08F64
:100DA0004C020020FE07006C2DE9F8431F4D1F4642
:100DB0008046AB88089EA3F5D040043802D1A879BC
:100DC000012807D0A2EB0800401C85B20C46DFF8D2
:100DD000609028E02B880846991A0024AC713A46A6
:100DE0002A24A3EB08036C812B27491E5B1EAF81CD
:100DF00089B29BB20096FFF7D7FF0120A8716F81DF
:100E0000AC81BDE8F8832146404603F047F803F083
:100E100037FA0020494602E00E80401C80B2A8420A
:100E2000FAD3641CA4B2BC42EDD9EAE74C0200201C
:100E30000008006C2DE9F05FFE484069FD4940F470
:100E400080704861886940F008008861886940F0D6
:100E500020008861886940F040008861886940F41A
:100E600080708861F4480068F34920F00F00086042
:100E7000086840F003000860F0480168F04A11403B
:100E800001600168EF4A11430160001F016801F031
:100E9000FF210160016841F0BB110160EA4801686F
:100EA00000210160026842F0BB320260001F02684C
:100EB00022F070420260026842F030420260E34871
:100EC000426822F470224260426842F4302242605A
:100ED000026822F00F020260026842F00B02026018
:100EE0004FF020408161C161C0F81C11816941F45B
:100EF00080518161816941F480418161816941F062
:100F000010018161C169C161C16941F00101C16123
:100F1000C16941F47061C161D0F81C11C0F81C11A5
:100F2000D0F81C11C0F81C11D0F81C1141F440710C
:100F3000C0F81C11816941F001018161322003F088
:100F40002BFF002002F0ACFEC14DC24C49F24137EC
:100F5000A88046F6040945F2103A45F210564FF6BD
:100F6000FF78FF2804D3404502D0B0F5134F70D16D
:100F7000D320208002F08AFEA88002F087FEA8809D
:100F800002F084FE08EA00204146A88002F07EFEBE
:100F9000AA881043A880B8425BD0BF20208002F00E
:100FA00075FEA88002F072FEA88002F06FFEA88095
:100FB00002F06CFE01EA0020A88002F067FEAA8819
:100FC0001043A880484544D0D420208002F05EFE23
:100FD000A88002F05BFEA88002F058FE01EA002023
:100FE000A88002F053FEAA881043A880504530D054
:100FF0004FF45A40208002F049FEA8804FF45B4035
:10100000208002F043FE01EA0020A8804FF45C40FB
:10101000208002F03BFEAA881043A880B0F5004F64
:101020007ED0B04215D0A120208002F02FFEA880F3
:1010300002F02CFE01EA0020A88002F027FEA98819
:101040000843A0F5AE41A880613902D141F6631092
:10105000A880A98880A0FFF705F9A8887D4DAD1C60
:10106000B8427DD1CF20208000202880C120288058
:1010700030202880ED2020806420288003202880D4
:101080001220288081202880E82020808520288048
:10109000102028807A202880CB20208039202880AA
:1010A0002C202880002028803420288002202880BE
:1010B000F720208020202880EA202080002028801F
:1010C0002880C02020801B202880C1202080012073
:1010D0002880C5202080302028802880C7202080BC
:1010E000B720288036202080482028803A20208081
:1010F00055202880B1202080002028801A202880B8
:10110000B62020800A202880A2202880F22020807B
:10111000002028802620208001202880E02000E078
:1011200050E020800F2028802A2028802820288036
:10113000082028800E20288008202880542028801D
:10114000A9202880432028800A2028800F2028807A
:1011500000202880288028802880E120208000E04E
:1011600032E00020288015202880172028800720C2
:10117000288011202880062028802B2028805620B7
:1011800028803C20288005202880102028800F20DF
:1011900028803F20288028800F2028802B20208036
:1011A000002028802880012028803F2028802A20B5
:1011B00020800020288028802880EF20288011208F
:1011C00020808BE0AE8044E748457DD1112020800F
:1011D000142003F0E1FDD020208007202880422049
:1011E00028801D202880D1202080002028801A20DF
:1011F000288009202880D2202080012028802220D9
:101200002880C0202080102028803B2028800020BB
:1012100028800220288011202880C52020800320DB
:101220002880C82020800020288025202880212098
:10123000288019E000100240000C01400414014015
:1012400000F0FF00BB0B00BB041801400020014070
:101250004C020020FE07006C204C43442049443AD5
:1012600025780D0A00000000052028800020288035
:101270000A20288065202880252028807720288043
:10128000502028800F20288000202880F8202080EF
:1012900001202880FE202080002028800220288035
:1012A0002020208036202080082028803A2020809E
:1012B000552028802B202080002028802880012095
:1012C00028803F20288000E00EE02A202080002097
:1012D0002880288001202880DF202880782003F0C3
:1012E0005BFD292001F02DBC50457DD1ED202080F3
:1012F00001202880FE202880EE202080DE2028800B
:1013000021202880F120208001202880DF202080DB
:1013100010202880C42020808F202880C620208094
:1013200000202880E220288028802880BF2020807C
:10133000AA202880B02020800D202880002028802E
:101340000D2028800020288011202880002028805F
:101350001920288000202880212028800020288033
:101360002D202880002028803D20288000202880F3
:101370005D202880002028805D2028800020288093
:10138000B120208080202880002028808B20288089
:10139000002028809620288000202880B2202080ED
:1013A0000020288028800220288000202880032018
:1013B000288000202880B3202080002028802880DA
:1013C00028802880288028802880288028802880DD
:1013D00028802880288028802880288028802880CD
:1013E00028802880288000E0FEE32880288028804C
:1013F000B42020808B202880002028809620288000
:1014000000202880A120288000202880B52020806E
:1014100002202880002028800320288000202880A7
:101420000420288000202880B620208000202880EA
:101430002880B72020800020288028803F20288016
:10144000002028805E2028800020288064202880BA
:10145000002028808C20288000202880AC20288034
:1014600000202880DC202880002028807020288010
:10147000002028809020288000202880EB202880D1
:1014800000202880DC20288000202880B8202080B0
:101490000020288028802880288028802880288094
:1014A0002880BA20208024202880002028802880BE
:1014B0002880C120208020202880002028805420DF
:1014C000288000202880FF20288000202880C2203B
:1014D00020800A20288000202880042028800020E6
:1014E0002880C32020803C202880002028803A20AB
:1014F000288000202880392028800020288037205C
:101500002880002028803C20288000202880362049
:1015100028800020288032202880002028802F204A
:101520002880002028802C20288000202880292046
:101530002880002028802620288000202880242041
:101540002880002028802420288000202880232034
:101550002880002028803C202880002028803620F9
:1015600028800020288032202880002028802F20FA
:101570002880002028802C202880002028802920F6
:1015800028800020288026202880002028802420F1
:1015900028800020288024202880002028802320E4
:1015A000288000202880C4202080622028800020FD
:1015B0002880052028800020288084202880002082
:1015C0002880F020288000202880182028800020F3
:1015D0002880A4202880002028801820288000202F
:1015E000288050202880002028800C20288000207F
:1015F000288017202880002028809520288000201F
:101600002880F320288000202880E62028800020E1
:101610002880C52020803220288000202880442077
:1016200028800020288065202880002028807620BF
:101630002880002028808820288000202880C6203C
:10164000208020202880002028801720288000204B
:1016500028800120288000202880C72020800020AA
:101660002880288028802880C8202080002028808A
:10167000288028802880C920208000202880288079
:10168000288028802880288028802880288028801A
:10169000288028802880288028802880E0202080BA
:1016A00016202880002028801C20288000202880E8
:1016B00021202880002028803620288000202880B3
:1016C0004620288000202880522028800020288062
:1016D00064202880002028807A202880002028800C
:1016E0008B202880002028809920288000202880B6
:1016F000A820288000202880B92028800020288069
:10170000C420288000202880CA202880002028802B
:10171000D220288000202880D920288000202880FE
:10172000E020288000202880F320288000202880C6
:10173000E120208016202880002028801C2028807E
:101740000020288022202880002028803620288021
:1017500000202880452028800020288052202880D2
:101760000020288064202880002028807A2028807B
:10177000002028808B202880002028809920288025
:1017800000202880A820288000202880B9202880D8
:1017900000202880C420288000202880CA2028809B
:1017A00000202880D220288000202880D82028806F
:1017B00000202880E020288000202880F320288036
:1017C00000202880E220208005202880002028801A
:1017D0000B202880002028801B20288000202880C3
:1017E0003420288000202880442028800020288061
:1017F0004F20288000202880612028800020288019
:1018000079202880002028808820288000202880B7
:101810009720288000202880A6202880002028806B
:10182000B720288000202880C2202880002028801F
:10183000C720288000202880D120288000202880F0
:10184000D620288000202880DD20288000202880C5
:10185000F320288000202880E32020800520288095
:10186000002028800A202880002028801C20288032
:1018700000202880332028800020288044202880D1
:101880000020288050202880002028806220288086
:101890000020288078202880002028808820288028
:1018A000002028809720288000202880A6202880DB
:1018B00000202880B720288000202880C22028808F
:1018C00000202880C720288000202880D120288060
:1018D00000202880D520288000202880DD20288036
:1018E00000202880F320288000202880E420208009
:1018F00001202880002028800120288000202880C6
:1019000002202880002028802A202880002028808B
:101910003C202880002028804B2028800020288020
:101920005D202880002028807420288000202880C6
:101930008420288000202880932028800020288070
:10194000A220288000202880B32028800020288022
:10195000BE20288000202880C420288000202880E5
:10196000CD20288000202880D320288000202880B7
:10197000DD20288000202880F32028800020288077
:10198000E5202080002028802880288028800220D0
:1019900028800020288029202880002028803C20C2
:1019A0002880002028804B202880002028805D206F
:1019B000288000202880742028800020288084200F
:1019C0002880002028809320288000202880A220C2
:1019D000288000202880B320288000202880BE2076
:1019E000288000202880C420288000202880CD2046
:1019F000288000202880D320288000202880DC2018
:101A0000288000202880F320288000202880E620DD
:101A10002080112028800020288034202880002069
:101A200028805620288000202880762028800020CA
:101A300028807720288000202880662028800020A9
:101A40002880882028800020288099202880002055
:101A50002880BB2028800020288099202880002012
:101A6000288066202880002028805520288000209B
:101A700028805520288000202880452028800020AC
:101A800028804320288000202880442028800020AF
:101A90002880E720208032202880002028805520C0
:101AA000288000202880762028800020288066203A
:101AB0002880002028806720288000202880672038
:101AC00028800020288087202880002028809920D6
:101AD000288000202880BB20288000202880992092
:101AE000288000202880772028800020288044201B
:101AF000288000202880562028800020288023204D
:101B0000288000202880332028800020288045203D
:101B1000288000202880E82020800020288028803D
:101B20009920288000202880872028800020288075
:101B30008820288000202880772028800020288086
:101B40006620288000202880882028800020288087
:101B5000AA20288000202880BB2028800020288000
:101B60009920288000202880662028800020288056
:101B7000552028800020288055202880002028809B
:101B800044202880002028804420288000202880AD
:101B90005520288000202880E9202080AA20288045
:101BA00000202880288028802080AA202880CF201C
:101BB0002080002028802880288028802880288075
:101BC00028802880288028802880288028802880D5
:101BD000288028802880F020208000202880502025
:101BE00028800020288000E02CE028802880F32036
:101BF000208000202880F9202080062028801020C6
:101C0000288029202880002028803A202080552004
:101C1000288011202080642003F0BEF82920208035
:101C2000352020800020288051202080FF2028801F
:101C3000532020802C20288055202080822028803E
:101C40002C20FCE3B0427DD14FF47043552118465F
:101C500002F020FB4FF20105AA21284602F01AFBF0
:101C60006E1C5221304602F015FBAF1C082138468D
:101C700002F010FB4FF204090121484602F00AFB72
:101C80000D214FF4304002F005FB0D214BF2010015
:101C900002F000FB0D214BF2020002F0FBFA4FF4C0
:101CA000364A3421504602F0F5FA34214BF20160F5
:101CB00002F0F0FA34214BF2026002F0EBFA4FF43A
:101CC000314B0D21584602F0E5FA0D214BF201107F
:101CD00002F0E0FA0D214BF2021002F0DBFA34219F
:101CE0004FF4374002F0D6FA34214BF2017002F083
:101CF000D1FA34214BF2027002F0CCFA00214FF4F9
:101D0000324002F0C7FA00214BF2012002F0C2FA81
:101D100000214BF2022002F0BDFA24214FF438409A
:101D200002F0B8FA24214BF6010002F0B3FA2421A4
:101D30004BF6020002F0AEFA01214FF43F4002F0F0
:101D4000A9FA00E0FEE30F214FF4334002F0A2FABB
:101D50000F214BF2013002F09DFA0F214BF20230BD
:101D600002F098FA34214FF4394002F093FA34210A
:101D70004BF6011002F08EFA34214BF6021002F0FD
:101D800089FA08214FF4354002F084FA08214BF219
:101D9000015002F07FFA08214BF2025002F07AFA69
:101DA00003214FF4424002F075FA24214FF43A40E7
:101DB00002F070FA24214BF6012002F06BFA242184
:101DC0004BF6022002F066FA00214FF43C4002F08C
:101DD00061FA78214BF6014002F05CFA00214BF6E3
:101DE000024002F057FA00214FF43D4002F052FA4F
:101DF00078214BF6015002F04DFA00214BF60250CB
:101E000002F048FA00214FF43E4002F043FA642108
:101E10004BF6016002F03EFA00214FF4514002F00F
:101E200039FA33214DF2011002F034FA00214DF25B
:101E3000021002F02FFA34214DF2031002F02AFAB8
:101E400000214DF2041002F025FA3A214DF205105E
:101E500002F020FA00214DF2061002F01BFA4A218E
:101E60004DF2071002F016FA00214DF2081002F0B0
:101E700011FA5C214DF2091002F00CFA00214DF22A
:101E80000A1002F007FA81214DF20B1002F002FA5B
:101E900000214DF20C1002F0FDF9A6214DF20D10BB
:101EA00002F0F8F900214DF20E1002F0F3F9E521ED
:101EB0004DF20F1002F0EEF901214DF2101002F078
:101EC000E9F913214DF2111002F0E4F901214DF26C
:101ED000121002F0DFF954214DF2131002F0DAF97A
:101EE00001214DF2141002F0D5F982214DF21510A6
:101EF00002F0D0F901214DF2161002F0CBF9CA21FF
:101F00004DF2171002F0C6F902214DF2181002F03E
:101F1000C1F900214DF2191002F0BCF902214DF275
:101F20001A1002F0B7F901214DF21B1002F0B2F9BC
:101F300002214DF21C1002F0ADF934214DF21D10BA
:101F400002F0A8F902214DF21E1002F0A3F9672158
:101F50004DF21F1002F09EF902214DF2201002F006
:101F600099F984214DF2211002F094F902214DF2E9
:101F7000221002F08FF9A4214DF2231002F08AF909
:101F800002214DF2241002F085F9B7214DF22510FF
:101F900002F080F902214DF2261002F07BF9CF21E8
:101FA0004DF2271002F076F902214DF2281002F0CE
:101FB00071F9DE214DF2291002F06CF902214DF287
:101FC0002A1002F067F9F2214DF22B1002F062F9AB
:101FD00002214DF22C1002F05DF9FE214DF22D1080
:101FE00002F058F903214DF22E1002F053F910219E
:101FF0004DF22F1002F04EF903214DF2301002F095
:1020000049F933214DF2311002F044F903214DF228
:10201000321002F03FF96D214DF2331002F03AF91F
:1020200000214FF4524002F035F933214DF20120E6
:1020300002F030F900214DF2022002F02BF9342198
:102040004DF2032002F026F900214DF2042002F0A7
:1020500021F93A214DF2052002F01CF900214DF240
:10206000062002F017F94A214DF2072002F012F97A
:1020700000214DF2082002F00DF95C214DF20920FB
:1020800002F008F900214DF20A2002F003F9812143
:102090004DF20B2002F0FEF800214DF20C2002F070
:1020A000F9F8A6214DF20D2002F0F4F800214DF2CE
:1020B0000E2002F0EFF8E5214DF20F2002F0EAF8D1
:1020C00001214DF2102002F0E5F813214DF211200C
:1020D00002F0E0F801214DF2122002F0DBF8542169
:1020E0004DF2132002F0D6F801214DF2142002F037
:1020F000D1F882214DF2152002F0CCF801214DF2E9
:10210000162002F0C7F8CA214DF2172002F0C2F8DB
:1021100002214DF2182002F0BDF800214DF21920E5
:1021200002F0B8F802214DF21A2002F0B3F80121B2
:102130004DF21B2002F0AEF802214DF21C2002F0FD
:10214000A9F834214DF21D2002F0A4F802214DF22D
:102150001E2002F09FF867214DF21F2002F09AF82E
:1021600002214DF2202002F095F884214DF2212029
:1021700002F090F802214DF2222002F08BF8A42107
:102180004DF2232002F086F802214DF2242002F0C5
:1021900081F8B7214DF2252002F07CF802214DF2A2
:1021A000262002F077F8CF214DF2272002F072F8B6
:1021B00002214DF2282002F06DF8DE214DF2292097
:1021C00002F068F802214DF22A2002F063F8F221B1
:1021D0004DF22B2002F05EF802214DF22C2002F08D
:1021E00059F8FE214DF22D2002F054F803214DF252
:1021F0002E2002F04FF810214DF22F2002F04AF865
:1022000003214DF2302002F045F833214DF2312008
:1022100002F040F803214DF2322002F03BF86D212C
:102220004DF2332002F036F800214FF4534002F013
:1022300031F833214DF2013002F02CF800214DF23B
:10224000023002F027F834214DF2033002F022F878
:1022500000214DF2043002F01DF83A214DF2053014
:1022600002F018F800214DF2063002F013F84A216E
:102270004DF2073002F00EF800214DF2083002F066
:1022800009F85C214DF2093002F004F800214DF20A
:102290000A3001F0FFFF81214DF20B3001F0FAFF0F
:1022A00000214DF20C3001F0F5FFA6214DF20D306A
:1022B00001F0F0FF00214DF20E3001F0EBFFE521BF
:1022C0004DF20F3001F0E6FF01214DF2103001F028
:1022D000E1FF13214DF2113001F0DCFF01214DF23D
:1022E000123001F0D7FF54214DF2133001F0D2FF2C
:1022F00001214DF2143001F0CDFF82214DF2153055
:1023000001F0C8FF01214DF2163001F0C3FFCA21D0
:102310004DF2173001F0BEFF02214DF2183001F0EE
:10232000B9FF00214DF2193001F0B4FF02214DF246
:102330001A3001F0AFFF01214DF21B3001F0AAFF6E
:1023400002214DF21C3001F0A5FF34214DF21D3069
:1023500001F0A0FF02214DF21E3001F09BFF67212A
:102360004DF21F3001F096FF02214DF2203001F0B6
:1023700091FF84214DF2213001F08CFF02214DF2BA
:10238000223001F087FFA4214DF2233001F082FFBB
:1023900002214DF2243001F07DFFB7214DF22530AE
:1023A00001F078FF02214DF2263001F073FFCF21BA
:1023B0004DF2273001F06EFF02214DF2283001F07E
:1023C00069FFDE214DF2293001F064FF02214DF258
:1023D0002A3001F05FFFF2214DF22B3001F05AFF5D
:1023E00002214DF22C3001F055FFFE214DF22D302F
:1023F00001F050FF03214DF22E3001F04BFF102170
:102400004DF22F3001F046FF03214DF2303001F044
:1024100041FF33214DF2313001F03CFF03214DF2F9
:10242000323001F037FF6D214DF2333001F032FFD1
:1024300000214FF4544001F02DFF332100E080E3F0
:102440004DF2014001F026FF00214DF2024001F063
:1024500021FF34214DF2034001F01CFF00214DF219
:10246000044001F017FF3A214DF2054001F012FF40
:1024700000214DF2064001F00DFF4A214DF20740C8
:1024800001F008FF00214DF2084001F003FF5C213C
:102490004DF2094001F0FEFE00214DF20A4001F02C
:1024A000F9FE81214DF20B4001F0F4FE00214DF2C6
:1024B0000C4001F0EFFEA6214DF20D4001F0EAFEC6
:1024C00000214DF20E4001F0E5FEE5214DF20F40F6
:1024D00001F0E0FE01214DF2104001F0DBFE13217E
:1024E0004DF2114001F0D6FE01214DF2124001F0F3
:1024F000D1FE54214DF2134001F0CCFE01214DF2EA
:10250000144001F0C7FE82214DF2154001F0C2FED9
:1025100001214DF2164001F0BDFECA214DF21740D7
:1025200001F0B8FE02214DF2184001F0B3FE002187
:102530004DF2194001F0AEFE02214DF21A4001F0B9
:10254000A9FE00E0FFE201214DF21B4001F0A2FED6
:1025500002214DF21C4001F09DFE34214DF21D4040
:1025600001F098FE02214DF21E4001F093FE67211A
:102570004DF21F4001F08EFE02214DF2204001F08D
:1025800089FE84214DF2214001F084FE02214DF2AA
:10259000224001F07FFEA4214DF2234001F07AFE9B
:1025A00002214DF2244001F075FEB7214DF2254085
:1025B00001F070FE02214DF2264001F06BFECF21AA
:1025C0004DF2274001F066FE02214DF2284001F055
:1025D00061FEDE214DF2294001F05CFE02214DF248
:1025E0002A4001F057FEF2214DF22B4001F052FE3D
:1025F00002214DF22C4001F04DFEFE214DF22D4006
:1026000001F048FE03214DF22E4001F043FE10215F
:102610004DF22F4001F03EFE03214DF2304001F01B
:1026200039FE33214DF2314001F034FE03214DF2E9
:10263000324001F02FFE6D214DF2334001F02AFEB1
:1026400000214FF4554001F025FE33214DF2015099
:1026500001F020FE00214DF2025001F01BFE34215A
:102660004DF2035001F016FE00214DF2045001F02E
:1026700011FE3A214DF2055001F00CFE00214DF201
:10268000065001F007FE4A214DF2075001F002FE0C
:1026900000214DF2085001F0FDFD5C214DF2095082
:1026A00001F0F8FD00214DF20A5001F0F3FD812107
:1026B0004DF20B5001F0EEFD00214DF20C5001F0F7
:1026C000E9FDA6214DF20D5001F0E4FD00214DF28F
:1026D0000E5001F0DFFDE5214DF20F5001F0DAFD63
:1026E00001214DF2105001F0D5FD13214DF2115092
:1026F00001F0D0FD01214DF2125001F0CBFD54212B
:102700004DF2135001F0C6FD01214DF2145001F0BD
:10271000C1FD82214DF2155001F0BCFD01214DF2A9
:10272000165001F0B7FDCA214DF2175001F0B2FD6D
:1027300002214DF2185001F0ADFD00214DF219506B
:1027400001F0A8FD02214DF21A5001F0A3FD012174
:102750004DF21B5001F09EFD02214DF21C5001F084
:1027600099FD34214DF21D5001F094FD02214DF2EE
:102770001E5001F08FFD67214DF21F5001F08AFDC0
:1027800002214DF2205001F085FD84214DF22150AF
:1027900001F080FD02214DF2225001F07BFDA421C9
:1027A0004DF2235001F076FD02214DF2245001F04C
:1027B00071FDB7214DF2255001F06CFD02214DF263
:1027C000265001F067FDCF214DF2275001F062FD48
:1027D00002214DF2285001F05DFDDE214DF229501D
:1027E00001F058FD02214DF22A5001F053FDF22173
:1027F0004DF22B5001F04EFD02214DF22C5001F014
:1028000049FDFE214DF22D5001F044FD03214DF212
:102810002E5001F03FFD10214DF22F5001F03AFDF6
:1028200003214DF2305001F035FD33214DF231508E
:1028300001F030FD03214DF2325001F02BFD6D21EE
:102840004DF2335001F026FD00214FF4564001F0C7
:1028500021FD33214DF2016001F01CFD00214DF2FC
:10286000026001F017FD34214DF2036001F012FD0A
:1028700000214DF2046001F00DFD3A214DF205609A
:1028800001F008FD00214DF2066001F003FD4A2130
:102890004DF2076001F0FEFC00214DF2086001F0EE
:1028A000F9FC5C214DF2096001F0F4FC00214DF2CD
:1028B0000A6001F0EFFC81214DF20B6001F0EAFCAF
:1028C00000214DF20C6001F0E5FCA6214DF20D60F7
:1028D00001F0E0FC00214DF20E6001F0DBFCE5218F
:1028E0004DF20F6001F0D6FC01214DF2106001F0B5
:1028F000D1FC13214DF2116001F0CCFC01214DF20D
:10290000126001F0C7FC54214DF2136001F0C2FCCB
:1029100001214DF2146001F0BDFC82214DF21560E1
:1029200001F0B8FC01214DF2166001F0B3FCCA21A0
:102930004DF2176001F0AEFC02214DF2186001F07B
:10294000A9FC00214DF2196001F0A4FC02214DF216
:102950001A6001F09FFC01214DF21B6001F09AFC0E
:1029600002214DF21C6001F095FC34214DF21D60F6
:1029700001F090FC02214DF21E6001F08BFC6721FA
:102980004DF21F6001F086FC02214DF2206001F043
:1029900081FC84214DF2216001F07CFC02214DF28A
:1029A000226001F077FCA4214DF2236001F072FC5B
:1029B00002214DF2246001F06DFCB7214DF225603B
:1029C00001F068FC02214DF2266001F063FCCF218A
:1029D0004DF2276001F05EFC02214DF2286001F00B
:1029E00059FCDE214DF2296001F054FC02214DF228
:1029F0002A6001F04FFCF2214DF22B6001F04AFCFD
:102A000002214DF22C6001F045FCFE214DF22D60BB
:102A100001F040FC03214DF22E6001F03BFC10213F
:102A20004DF22F6001F036FC03214DF2306001F0D1
:102A300031FC33214DF2316001F02CFC03214DF2C9
:102A4000326001F027FC6D214DF2336001F022FC71
:102A50005521184601F01EFCAA21284601F01AFC57
:102A60005221304601F016FC0821384601F012FCD4
:102A70000021484601F00EFCCC21584601F00AFC2A
:102A800000214BF2011001F005FC0521504601F038
:102A900001FC70214FF4374001F0FCFB70214BF238
:102AA000017001F0F7FB01214FF4384001F0F2FB17
:102AB00003214BF6010001F0EDFB03214BF6020070
:102AC00001F0E8FB03214BF6030001F0E3FB0221D8
:102AD0004FF43C4001F0DEFB00214BF6014001F0D9
:102AE000D9FB00214BF6024001F0D4FBD0214FF47A
:102AF000494001F0CFFB02214CF6011001F0CAFB66
:102B000050214CF6021001F0C5FB50214CF6031089
:102B100001F0C0FB50214CF6041001F0BBFB00217A
:102B20004FF4545001F0B6FB55214FF4685001F0BA
:102B3000B1FB4FF488502080782002F041F94FF427
:102B400024502080FDE3A0F513414FF480764FF42C
:102B5000E06940F2022B4FF4274A253924D040F295
:102B60000777C91E7ED04FF4887A08317BD011399F
:102B70007AD0A0F5A841083977D0A0F5A8514FF434
:102B8000407A053972D0B1F5204170D0B1F580514D
:102B90006ED0A0F58A4131396BD0091F6AD0A0F5FB
:102BA000C851633967D0CDE747F6F001E52001F061
:102BB00071FB3146012001F06DFB4946022001F016
:102BC00069FB41F23001032001F064FB0021042085
:102BD00001F060FB5946082001F05CFB0021092050
:102BE00001F058FB00210A2001F054FB00210C20C9
:102BF00001F050FB00210D2001F04CFB00210F20C3
:102C000001F048FB0021102001F044FB07211120B6
:102C100001F040FB0021122001F03CFB00211320B9
:102C200001F038FB0021072001F034FB41F29061F4
:102C3000102001F02FFB40F22721112001F02AFB88
:102C40009D21122001F026FB4FF4C851132001F002
:102C500021FB2521292001F01DFB0D212B2001F056
:102C600019FB09E077E033E1D8E1AEE24AE3FDE3A6
:102C7000FDE3FDE3FDE3FDE30721302001F00AFB66
:102C800040F20331312001F005FB0321322001F035
:102C900001FB40F20621352001F0FCFA0821362024
:102CA00001F0F8FA40F20641372001F0F3FA4FF450
:102CB0004171382001F0EEFA0721392001F0EAFADB
:102CC00040F202613C2001F0E5FA08213D2001F0CC
:102CD000E1FA0021502001F0DDFAEF21512001F04E
:102CE000D9FA0021522001F0D5FA40F23F115320C9
:102CF00001F0D0FA5146602001F0CCFA01216120A8
:102D000001F0C8FA00216A2001F0C4FA00218020F5
:102D100001F0C0FA0021812001F0BCFA00218220DC
:102D200001F0B8FA0021832001F0B4FA00218420D8
:102D300001F0B0FA0021852001F0ACFA10219020BA
:102D400001F0A8FA4FF4C061922001F0A3FA40F21A
:102D500033110720FDE341F28F01EC2001F09AFAD4
:102D600041F23421EF2001F095FA3146012001F0C3
:102D700091FA4946022001F08DFA41F23001032018
:102D800001F088FA0021042001F084FA5946082055
:102D900001F080FA0021092001F07CFA00210A20CC
:102DA00001F078FA01210C2001F074FA00210D20C5
:102DB00001F070FA00210F2001F06CFA00211020C0
:102DC00001F068FA0721112001F064FA00211220B5
:102DD00001F060FA0021132001F05CFA01210720C4
:102DE00001F058FA322001F0D7FF41F29041102053
:102DF00001F050FA40F22721112001F04BFA322065
:102E000001F0CAFF8A21122001F044FA322001F0B9
:102E1000C3FF4FF4D051132001F03CFA06212920C2
:102E200001F038FA0D212B2001F034FA322001F0A4
:102E3000B3FF0021202001F02DFA0021212001F014
:102E400029FA322001F0A8FF0021302001F022FAF7
:102E500040F20461312001F01DFA40F205313220C8
:102E600001F018FA0021352001F014FA40F609416A
:102E7000362001F00FFA4FF40171372001F00AFA01
:102E800040F20131382001F005FA3946392001F0CD
:102E900001FA00213C2001F0FDF940F60A213D2015
:102EA00001F0F8F9322001F077FF0021502001F005
:102EB000F1F9EF21512001F0EDF90021522001F04C
:102EC000E9F940F23F11532001F0E4F9514651E194
:102ED0000021084601F0DEF93146012001F0DAF95F
:102EE0004946022001F0D6F941F23001032001F0F9
:102EF000D1F90021042001F0CDF95946082001F054
:102F0000C9F90021092001F0C5F900210A2001F0CA
:102F1000C1F901210C2001F0BDF900210D2001F0C3
:102F2000B9F900210F2001F0B5F9322001F034FF8A
:102F300040F20111072001F0ADF9322001F02CFF21
:102F40004FF48651102001F0A5F90721112001F05E
:102F5000A1F953465146122001F09CF94FF430611B
:102F6000132001F097F90021292001F093F944F290
:102F700010012B2001F08EF90021502001F08AF978
:102F8000EF21512001F086F90021522001F082F951
:102F900040F23F11532001F07DF94FF41C516020A5
:102FA00001F078F90121612001F074F900216A2013
:102FB00001F070F90021802001F06CF900218120DE
:102FC00001F068F90021822001F064F900218320DA
:102FD00001F060F90021842001F05CF900218520D6
:102FE00001F058F91021902001F054F900219220AD
:102FF00001F050F90121932001F04CF91946952078
:1030000001F048F90021972001F044F900219820AF
:1030100001F040F940F27311072085E341F21401F9
:10302000E72001F037F93146012001F033F94FF480
:103030000071022001F02EF941F23801032001F065
:1030400029F95946082001F025F90021092001F04D
:1030500021F900210A2001F01DF900210C2001F0C6
:1030600019F900210D2001F015F900210F2001F0C0
:1030700011F90021102001F00DF90721112001F0B4
:1030800009F90021122001F005F90021132001F0B7
:1030900001F9C82001F080FE41F29061102001F09A
:1030A000F9F840F22721112001F0F4F8322001F064
:1030B00073FE0C21122001F0EDF8322001F06CFEBD
:1030C0004FF40061132001F0E5F81121292001F0EF
:1030D000E1F80B212B2001F0DDF8322001F05CFE3D
:1030E0000021202001F0D6F840F23F13194621209C
:1030F00001F0D0F80021302001F0CCF84FF48374B7
:103100002146312001F0C6F80021322001F0C2F83A
:103110004FF40171352001F0BDF841F20A6136200B
:1031200001F0B8F83946372001F0B4F821463820CC
:1031300001F0B0F83946392001F0ACF840F2024114
:103140003C2001F0A7F840F60F413D2001F0A2F825
:103150000021502001F09EF8EF21512001F09AF853
:103160000021522001F096F81946532001F092F800
:103170004FF41C51602001F08DF80121612001F015
:1031800089F800216A2001F085F80021802001F0F3
:1031900081F80021812001F07DF80021822001F0DA
:1031A00079F80021832001F075F80021842001F0D6
:1031B00071F80021852001F06DF81021902001F0B8
:1031C00069F84FF4C0619220FDE33146012001F01F
:1031D00061F84946022001F05DF841F23001032018
:1031E00001F058F80021042001F054F840F20721C2
:1031F000082001F04FF80021092001F04BF80021D0
:103200000A2001F047F800210C2001F043F80021CA
:103210000D2001F03FF800210F2001F03BF81420B1
:1032200001F0BAFD41F2B061102001F033F8012144
:10323000112001F02FF80121172001F02BF84FF495
:103240009C71122001F026F84FF40061132001F068
:1032500021F80921292001F01DF809212A2001F077
:1032600019F80021A42001F015F80021502001F0E8
:1032700011F8EF21512001F00DF80021522001F04A
:1032800009F840F23F11532001F004F84FF41C51AB
:10329000602000F0FFFF0121612000F0FBFF002112
:1032A0006A2000F0F7FF0021802000F0F3FF0021EA
:1032B000812000F0EFFF0021822000F0EBFF0021D1
:1032C000832000F0E7FF0021842000F0E3FF0021CD
:1032D000852000F0DFFF1321902000F0DBFF0021AC
:1032E000922000F0D7FF0321932000F0D3FF514636
:1032F000952000F0CFFF40F27311072000F0CAFFC5
:10330000322010E10021072000F0C4FF322001F03C
:1033100043FD4FF48E71122000F0BCFF0121A42068
:1033200000F0B8FF0F21082000F0B4FF08210A20A8
:1033300000F0B0FF08210D2000F0ACFF394630202E
:1033400000E072E300F0A6FF0721312000F0A2FFA9
:1033500040F20361322000F09DFF4C464946332085
:1033600000F098FF5946342000F094FF02213520E8
:1033700000F090FF41F60F71362000F08BFF3946C8
:10338000372000F087FF0021382000F083FF002164
:10339000392000F07FFF39463A2000F07BFF002102
:1033A0003B2000F077FF07213C2000F073FF002155
:1033B0003D2000F06FFF322001F0EEFC01210720DC
:1033C00000F068FF0121172000F064FF322001F0B7
:1033D000E3FC4FF4BD51102000F05CFF40F21721D8
:1033E000112000F057FF4FF48F71122000F052FFB0
:1033F0004FF47061132000F04DFF00212A2000F0EF
:1034000049FF0A21292000F045FF4FF49F71122047
:1034100000F040FF0021502000F03CFFEF21512040
:1034200000F038FF0021522000F034FF40F23F113D
:10343000532000F02FFF4FF41C51602000F02AFFB2
:103440000121612000F026FF00216A2000F022FF08
:103450000021802000F01EFF0021812000F01AFFD3
:103460000021822000F016FF002104E05EE05CE114
:1034700025E2DBE282E3832000F00CFF00218420C0
:1034800000F008FF0021852000F004FF13219020A8
:1034900000F000FF5146922000F0FCFE0521932031
:1034A00000F0F8FE0021952000F0F4FE00219720A6
:1034B00000F0F0FE0021982000F0ECFE31460120E3
:1034C00000F0E8FE2146022000F0E4FE41F238015F
:1034D000032000F0DFFE0021042000F0DBFE0021CD
:1034E0000C2000F0D7FE00210F2000F0D3FE0021B9
:1034F000202000F0CFFE0021212000F0CBFE212172
:10350000072000F0C7FE142001F046FC61210720CF
:1035100000F0C0FE142001F03FFC40F273110720C0
:1035200000F0B8FE142001F037FCA1E300210846AA
:1035300000F0B0FE0021084600F0ACFE0021084675
:1035400000F0A8FE0021084600F0A4FE0121A420FE
:1035500000E0E5E000F09EFE142001F01DFC4FF4B9
:103560001C542146602000F095FE5D465946082017
:1035700000F090FE4FF40571302000F08BFE43F216
:103580001571312000F086FE40F20461322000F017
:1035900081FE40F61661332000F07CFE42F21121DC
:1035A000342000F077FE4FF4A851352000F072FE71
:1035B00048F20751362000F06DFE41F207413720F6
:1035C00000F068FE41F20341382000F063FE202144
:1035D000392000F05FFE1A21902000F05BFE0021F0
:1035E000102000F057FE0721112000F053FE0021AB
:1035F000122000F04FFE0021132000F04BFE14209B
:1036000001F0CAFB4FF4E661102000F043FE40F2E7
:103610003711112000F03EFE142001F0BDFB4FF4E5
:10362000DC71122000F036FE142001F0B5FB4FF4DF
:103630007061132000F02EFE80212A2000F02AFE67
:103640004821292000F026FE142001F0A5FB314678
:10365000012000F01FFE4946022000F01BFE41F24F
:103660003801032000F016FE2946082000F012FE63
:1036700000210A2000F00EFE00210C2000F00AFEBE
:1036800000210D2000F006FE30210E2000F002FE89
:103690000021502000F0FEFDEF21512000F0FAFD46
:1036A0000021522000F0F6FD40F23F11532000F0BF
:1036B000F1FD2146602000F0EDFD0121612000F0C8
:1036C000E9FD00216A2000F0E5FD1121902000F0C5
:1036D000E1FD4FF4C061922000F0DCFD40F20241B8
:1036E000932000F0D7FD0221942000F0D3FD142098
:1036F00001F052FB0121072000F0CCFD142001F065
:103700004BFB6121072000F0C5FD40F2731107203B
:1037100000F0C0FD0021202000F0BCFD0021212090
:1037200000F0B8FD222100207DE10021084600F0D4
:10373000B1FD0021084600F0ADFD142001F02CFB86
:103740000021084600F0A6FD0021084600F0A2FD79
:103750000021084600F09EFD0021084600F09AFD79
:103760000121A42000F096FD142001F015FB4FF478
:103770001C51602000F08EFD40F60601082000F08C
:1037800089FD40F203731946302000F083FD0121CA
:10379000312000F07FFD0421322000F07BFD4FF44A
:1037A0008171332000F076FD54465146342000F0FC
:1037B00071FD40F20311352000F06CFD1F21362011
:1037C00000F068FD1946372000F064FD0121382023
:1037D00000F060FD0421392000F05CFD15219020EF
:1037E00000F058FD4FF48261102000F053FD40F2CC
:1037F0004721112000F04EFD4FF4DE71122000F041
:1038000049FD4FF46061132000F044FD782001F081
:10381000C3FA3146012000F03DFD4FF40071022053
:1038200000F038FD41F23001032000F033FD0821A3
:103830000A2000F02FFD00210C2000F02BFD20219C
:103840000E2000F027FD00210F2000F023FD0021B5
:10385000202000F01FFD0021212000F01BFD3D2154
:103860002A2000F017FD142001F096FA2D212920BE
:1038700000F010FD0021502000F00CFD4DF2EF0192
:10388000512000F007FD0021522000F003FD40F21E
:103890003F11532000F0FEFC0021612000F0FAFCF3
:1038A00000216A2000F0F6FC2146922000F0F2FC94
:1038B0000521932000F0EEFC3146FFF7ADBB01215E
:1038C000002000F0E7FC0A2001F066FA41F22861CE
:1038D000102000F0DFFC0E21122000F0DBFC40F68F
:1038E0003921132000F0D6FC0A2001F055FA4021BE
:1038F000112000F0CFFC5021152000F0CBFC0A2055
:1039000001F04AFA1E21122000F0C4FC0A2001F046
:1039100043FA4FF4B151102000F0BCFC42F63921BB
:10392000132000F0B7FC0A2001F036FA31460120DE
:1039300000F0B0FC5146022000F0ACFC41F238012E
:10394000032000F0A7FC5946082000F0A3FC082142
:103950000A2000F09FFC0021302000F09BFC40F288
:103960000241312000F096FC4FF48371322000F0C8
:1039700091FC40F20351332000F08CFC4FF4827133
:10398000342000F087FC40F20131352000F082FC49
:103990003946362000F07EFC40F20531372000F039
:1039A00079FC4FF40271382000F074FC40F60B7182
:1039B000392000F06FFC0221412000F06BFC4FF435
:1039C0001C51602000E0D4E000F064FC0121612083
:1039D00000F060FC4FF40471902000F05BFC4FF4A9
:1039E0008571922000F056FC0421932000F052FCD7
:1039F0003146A02000F04EFC0121072000F04AFCD7
:103A00002121072000F046FC2321072000F042FC82
:103A10003321072000F03EFC40F23311072000F074
:103A200039FC0021A02000F035FC21E130211520D7
:103A300000F030FC10219A2000F02CFC20211120F5
:103A400000F028FC43F22841102000F023FC022162
:103A5000122000F01FFC41F23801132000F01AFC84
:103A6000282001F099F91221084600F013FC2820C3
:103A700001F092F943F22041102000F00BFC43F2D8
:103A80003801132000F006FC462001F085F90021E2
:103A9000302000F0FFFB40F20241312000F0FAFB41
:103AA00040F20731322000F0F5FB4FF44171332032
:103AB00000F0F0FB0421342000F0ECFB40F2014167
:103AC000352000F0E7FB3946362000F0E3FB40F2FA
:103AD0000531372000F0DEFB4FF4C2631946382071
:103AE00000F0D8FB1946392000F0D4FB3146012004
:103AF00000F0D0FB5146022000F0CCFB41F2300137
:103B0000032000F0C7FB40F60801082000F0C2FBCC
:103B100008210A2000F0BEFB4FF41C51602000F089
:103B2000B9FB0121612000F0B5FB4FF49F7190209B
:103B300000F0B0FB3146922000F0ACFB3146932000
:103B400000F0A8FB4FF44051A02000F0A3FB10218F
:103B5000A32000F09FFB0121072000F09BFB212107
:103B6000072000F097FB2321072000F093FB33216F
:103B7000072000F08FFB40F233119EE6E220208008
:103B80001D2028800220288004202880642001F045
:103B900017F9E0202080012028800A2001F0FCF89D
:103BA000E0202080032028800C2001F0F5F801207F
:103BB00020800A2001F0F0F8E62020802F202880C5
:103BC000FF2028802880B02020802020288000200E
:103BD00028800320288040F21F3028800120288080
:103BE00040F2DF10288000202880B42020800420AC
:103BF000288040F21F402880002028802E20288026
:103C000000202880288028802880B620208002205C
:103C100028804FF4037028800020288017202880F7
:103C200015202880002028802880F0202080032074
:103C3000288029202080D020208000202880BE20BD
:103C4000208005202880FE20288001202880002058
:103C5000288028802880B820208003202880012008
:103C60002880BA20208001202880642000F024F8D9
:103C70000020FCF7A3FE04490120C1F88001404662
:103C8000BDE8F05FFCF764BE00802142034808B540
:103C90000088ADF80000BDF8000008BD0008006C09
:103CA000044910B50880052001F08AF8BDE81040ED
:103CB000FFF7ECBFFE07006C0C4A10B5BE21118067
:103CC000941C0521218002F0D0F94FF06632084B98
:103CD00002F0DEF902F09CF9208001202080FF2014
:103CE000208000202080208010BD0000FE07006C96
:103CF00066660440F0B5674E00233146B279898884
:103D000046F6040741F66314012A01D02AB11DE0EA
:103D1000B9421BD0A14202D118E0A14216D1082815
:103D200014D2DFE800F00406080A0C0E1012062078
:103D30000CE007200AE0042008E0052006E001204E
:103D400004E0002002E0032000E00220A1F5134C73
:103D500045F2103245F21055BCF1410C07D0B94282
:103D600005D0914203D0A94201D0A14275D10828C3
:103D700012D2DFE800F0110406080A0C0E108023AE
:103D80000AE0402308E0C02306E0202304E060238B
:103D900002E0A02300E0E023A94202D14FF45850F2
:103DA00000E03620914205D0A94203D0A14201D0C3
:103DB00043F00803B94201D143F00203194600F071
:103DC00069FAB288A2420AD098063088718802D572
:103DD000884202D303E0884201D9318070802E48A6
:103DE000811CAA427289028021D100230B80531CBE
:103DF000038000230B80931C038033885B1E1C0A06
:103E00000C80D21C0280DAB20A80B28902800023C0
:103E10000B80531C038000230B80931C038073884A
:103E20005B1E1C0A0C80D21C0280D8B212E0002259
:103E30000A800A803288521E130A0B80D2B20A808E
:103E4000B28902800020088008807088401E020A23
:103E50000A80C0B20880F0BDFFE7082812D2DFE870
:103E600000F0040608110A0C0E1030230AE010239B
:103E700008E0202306E0382304E0282302E018238A
:103E800000E00823BDE8F040032043F4805100F037
:103E900001BA00004C020020FE07006C2DE9F04F33
:103EA0004E4F0B463A46BD880C0ADFF834B1918973
:103EB0005289A5F513464FEA102C0BF1020A413E38
:103EC0001DD0A5F5A646103E19D03E46BE4696F832
:103ED00006903688A5F5D047A6EB0008A8F10108A2
:103EE000043F17D0A5F5C857633F28D0A5F5AA47CA
:103EF0007646103F51D0B9F1010F63D064E0ABF8C2
:103F000000205246AAF800C0C0B2AAF80000ABF8E0
:103F100000100FE0B9F1010F01D11FFA88F0ABF8E2
:103F20000020050A5246AAF80050C0B2AAF80000C4
:103F3000ABF800101480D8B21080BDE8F08FB9F152
:103F4000000F1BD0ABF800205246AAF800C0C0B248
:103F5000AAF80000761E300AAAF80000F0B210801D
:103F6000ABF8001011461480D8B21080BEF80200E1
:103F7000401E020A0A80C0B20880DEE71FFA88F0FD
:103F8000ABF8002000265246AAF80060AAF80060AC
:103F9000060AAAF80060C0B2E1E7ABF80020AAF870
:103FA00000C0521CABF80020C0B2AAF80000ABF869
:103FB0000010AAF80040491CABF80010D8B2AAF8CB
:103FC0000000BAE71FFA88F00146104600F062F9D7
:103FD000B089BDE8F04F194600F05CB94C020020F2
:103FE000FE07006C2DE9FC4F044691464844401EF4
:103FF00086B2C818401E83B2009004EB0900401E30
:10400000C0F3072EDFF850C100980D46C0F3072B10
:104010006046BCF804204FEA112881894089A2F546
:1040200013474FEA142A413F10D0A2F5A647103F8C
:104030000CD0A2F5D047043F08D09CF8067041F69A
:10404000631C0197012F13D1624511D1434F388072
:10405000B81CA0F800A0E2B20280A0F800E0F2B222
:1040600002803980A0F80080E9B2018059461CE046
:10407000394F62453F881DD1A7EB0902121B374C0F
:10408000009B92B29BB22080160AA01C0680D6B27A
:1040900006804A44521E160A0680D2B2028021804F
:1040A000A0F80080E9B20180190A0180D9B201802C
:1040B000BDE8FC8FA2F5A04CBCF5A26C1FD0019806
:1040C00001283FD0B04621462E4650204FF0510ADD
:1040D0004FF05209532700F0DDF84146504600F0FA
:1040E000D9F83146484600F0D5F81946384600F070
:1040F000D1F829462046BDE8FC4FFFF7CFBE174A4E
:104100001080971CA7F800A000F1010CA2F800C0D5
:10411000E4B23C80841C1480A7F800E0C01C10802E
:10412000F0B238801180A7F80080481C1080E8B2F7
:104130003880881C1080A7F800B0C91C1180D8B244
:104140003880B5E7B81B401E86B2381B9846401E23
:10415000294683B2B9E700004C020020FE07006C3C
:104160002DE9F84F82461F460C468B46580700D073
:10417000012000EBD70079084843203AC0B202F092
:10418000FF090026009041E00C2F10D0102F12D014
:10419000182F3ED1204909EBC90001EB80004FF0F8
:1041A0000008855D28060AD51C4802880BE009EB4B
:1041B00049001B49F1E71B4901EB0910EFE70A9899
:1041C00028B91648428821465046FCF75FFD68062C
:1041D000050E1548641CA4B24088A04219D9A4EB6E
:1041E0000B00B84209D10AF101001FFA80FA0E480B
:1041F0005C46018851450CD906E008F1010000F049
:10420000FF08B8F1080FCDD3761CF6B200988642AD
:10421000BAD3BDE8F88F00001E72000830000020FD
:10422000BA6700082E6C00084C0200202DE9F84FF8
:10423000044600F0FF0810190D46DDE90A761FFA62
:1042400080FA58191FFA80F94FF0000B11E054451D
:1042500002D3E819444685B24D450FD23B46294664
:104260002046CDF800B0FFF77BFF04EB570084B287
:10427000761C3278A2F120005E28E8D9BDE8F88FDC
:104280000248034900890880704700004C02002062
:10429000FE07006C024A1080901C018070470000ED
:1042A000FE07006C1348816941F008018161816952
:1042B00041F0400181611048016821F47001016002
:1042C000016841F4401101600B480C30016841F075
:1042D000200101600948016821F470010160016852
:1042E00041F44011016005480C30016841F02001A3
:1042F0000160704700100240000C014000180140AE
:104300000F4800210161C160142242618161C161D5
:10431000026842F00102026042680A4B1A404260A1
:104320000268094B1A400260026822F4802202608F
:10433000426822F4FE0242608160C00300F03EB891
:10434000001002400000FFF8FFFFF6FEF0B5064641
:1043500014460F461D46184600F01EF8C5F104002D
:1043600086400F21E940394031436009800000F167
:10437000E020D0F8002104F01F050123AB401A43D0
:10438000C0F8002104F1E02494F8000440EA011090
:1043900084F80004F0BD0000064A0721814310683C
:1043A0004FF6FF031840044B184340EA0120106009
:1043B000704700000CED00E00000FA05024A1140D1
:1043C000014302480160704780FFFF1F08ED00E0D5
:1043D000002130B1012806D0032806D0042807D1D7
:1043E00005E0B02104E0982102E0182100E030212E
:1043F000552000F09BBA70B5802622255E2430B18E
:10440000012808D003280AD004280FD10BE0402649
:1044100011252F240AE066261B254B2406E0992649
:104420002825712402E0C02633258D2431464F20F3
:1044300000F07CFA3146502000F078FA002151203B
:1044400000F074FA2946522000F070FA21465320F9
:1044500000F06CFA3146542000F068FABDE8704074
:104460009E21582000F062BA402130B1012806D0C8
:10447000032806D0042807D105E0302104E03821C4
:1044800002E0502100E06021562000F04FBA000009
:1044900070B540480024816941F00401816181695F
:1044A00041F008018161816941F0100181618169F8
:1044B00041F020018161816941F480718161364858
:1044C000016821F00F010160016841F008010160FD
:1044D00031480830016841F4807101602F4801685B
:1044E00021F47F210160016841F44C3101602B48C7
:1044F0000C30016841F01801016029484FF0883103
:104500000160C16841F0FF01C1602648016821F0E7
:1045100070610160016841F04071016021480C3018
:10452000016841F0400101601F48416821F07F416E
:104530004160416841F04C5141604FF4E031C1604D
:104540000120FCF7C5F900F0BDF88021122000F031
:10455000EDF908B1012070BD322000F01DFC0B20E8
:1045600000F040F9732804D10A2000F03BF97628C6
:1045700001D0022070BD0D4D05EB4400417815F8C7
:10458000140000F0D3F9641CA4B2A82CF4D30020CA
:1045900070BD00000010024004080140000C014002
:1045A0000010014000140140002001407A7F000803
:1045B00070B50025E7212C46012806D0022808D036
:1045C00003280AD004280FD10BE0E5215A255C24EA
:1045D0000AE0E5215825602406E0E52184254C24E5
:1045E00002E0E52196254024132000F09FF929469A
:1045F000012000F09BF92146BDE87040022000F048
:1046000095B970B50421C0248025072816D2DFE8AB
:1046100000F0150406090B0E1200242100E01421FD
:1046200080240BE0142109E01421402405E014212A
:104630008024C02502E01421A02440253A2000F067
:1046400075F92146682000F071F92946BDE87040EF
:10465000672000F06BB92DE9F041054600EB420000
:1046600086B201EB430084B20F46B4F5447F02D911
:10467000A4F54474A4B2032000F0B4F806F00302D9
:10468000294600F0F00062F39F010143032000F08F
:104690004DF9C5F38701192000F048F9C6F38701E9
:1046A0001A2000F043F9322000F09CF8C7F3C7014C
:1046B000172000F03BF9C4F3C701BDE8F041182012
:1046C00000F034B91648816941F4807181618169D3
:1046D00041F0200181611348416821F4700141607B
:1046E000416841F400014160C16841F40051C1607A
:1046F0000D490A6822F470420A600A6842F4405286
:104700000A6009490C310A6842F008020A604168EF
:1047100021F470014160416841F4401141607047EB
:1047200000100240002001400014014070B532200A
:1047300000F046FB0C4D0120C5F8B4010B4EC6F845
:104740008C01322005F5DA7506F5C67600F038FBE7
:1047500000243460322000F033FB2C60BDE8704050
:10476000322000F02DBB00000000244200802242D5
:104770002DE9F047184F0024786820F47000786025
:10478000786840F400007860DFF85090144E0825F7
:104790004FF00108A246322000F012FBC6F88C81CF
:1047A0006006040ED9F8340108B1641CE4B232206A
:1047B00000F006FBC6F88CA16D1E15F0FF05EAD1CE
:1047C000786820F470007860786840F44010786071
:1047D0002046BDE8F0870000002001400000244290
:1047E0000080224210B5044600F022F8422000F07A
:1047F00055F8642000F0E4FA204600F04FF86420F9
:1048000000F0DEFA00F02EF8642000F0D9FA00F093
:104810000FF8432000F042F8642000F0D1FAFFF7CF
:10482000A7FF0446FFF782FF00F01CF8204610BDEA
:1048300070B50A4E0120C6F8B401094DC5F88C01C7
:10484000322005F5C67506F5DA7600F0B9FA0024CF
:104850003460322000F0B4FA2C6070BD00002442B5
:104860000080224270B50B4C0020C4F8B401322005
:1048700004F5DA7400F0A4FA07480125C0F88C5159
:10488000322000F09DFA2560BDE87040322000F033
:1048900097BA000000002442008022422DE9F04730
:1048A00000241F4E1F4F0546A0464FF00109280661
:1048B00001D5484600E04046C6F8B4016806050E3A
:1048C000322000F07DFAC7F88C91322000F078FA9F
:1048D000C7F88C81641CE4B2082CE8D3124C6068E1
:1048E00020F470006060606840F400006060322076
:1048F00000F066FAC7F88C91322000F061FAD6F821
:10490000340100B10120C7F88C81616821F4700185
:104910006160616841F440116160BDE8F0870000AA
:1049200000002442008022420020014070B50D4664
:1049300006460024FFF77CFF4220FFF7AFFF00B1DF
:104940000124642000F03CFA3046FFF7A7FF00B1D5
:104950000124642000F034FA2846FFF79FFF00B1DD
:104960000124FFF77FFF204670BD000030B50546EB
:104970000024FFF7C5FC1649086840F48030086041
:104980000868400CFCD04FF480604860AD1E4A6857
:10499000E8B242EA80404860486840F480304860AD
:1049A0000C48026842F032020260086840F08070F1
:1049B00008600868400EFCD0486840F0020048607B
:1049C00002E04868C0F38104022CFAD130BD000037
:1049D000001002400020024008490888C00706D0A5
:1049E000074AD2F8940138B10020C2F8940108882F
:1049F00020F00100088070470120F6E71004004015
:104A00000000234210B50A4C2088C0070BD009488B
:104A100000698047064900201431088004494FF49A
:104A20007A701C310880208820F00100208010BDA1
:104A3000100800409000002030B51A4B19881A4A1F
:104A40004FF00004107805062AD4CD0706D045069D
:104A500004D5C543AD0612D0401C107088071FD581
:104A600010781249450611D540F0800010700F48AB
:104A7000143000885080088820F002000FE040F0D9
:104A8000800010704FF6FF705080E7E754804020A0
:104A900010700648001D0480088840F0020008805D
:104AA0001C8030BD100C004036000020200C00405F
:104AB00070B5084C208AC00706D0074D07A069785A
:104AC000FBF7D0FB00206870208A20F001002082D4
:104AD00070BD000000100040360000206672616D5D
:104AE000653A25646670730D0A0000000D4AD369AB
:104AF00043F00403D3610C4A1080101F01800A4860
:104B00002038018841F00101018007482C380188D4
:104B100041F00101018002231E2203210846FFF714
:104B200015BC0000001002402C08004030B51348AE
:104B3000008880060ED51148001D0088104AC1B2B9
:104B40001088030406D444044FF0000306D50A2954
:104B500001D0138030BD40F400400DE00D2909D094
:104B6000C0F30D04074D401C80B229551080C728A2
:104B7000EFD830BD40F48040108030BD0038014097
:104B8000280000208401002030380A2801D20120AA
:104B900070470020704770472DE9F05F6B4C4FF471
:104BA0008770A060E620E060322020610A2060610A
:104BB0006748007800287DD00420FFF79BF86549FE
:104BC0004FF4A0778888A0F5C852633A07D0A0F5C3
:104BD000AA42103A13D012F5007210D020E00888D3
:104BE0004988F038A1F5A07101EBD17100EBD070CC
:104BF000C1F34F01C0F34F003B46F0220EE008889E
:104C00004988A0F5A070F03901EBD17100EBD070AC
:104C1000C1F34F01C0F34F00F0233A46FFF7E2F92A
:104C2000FFF72EFB4C480021C0F8B8114B4E102561
:104C30003560A6F10408C8F8005035600121C0F8BD
:104C4000B811C8F80050DFF818A1DFF818B100213A
:104C50004FF6FF79BE4600203560DAF80830C8F814
:104C60000050DBB2CC4609EA03233560DAF80820AD
:104C7000C8F80050D2B21A43D70AC2F345132780AE
:104C8000638002F01F02A2800A2F24D8142B22D89E
:104C90000A2A20D8A1F10A024FF0000CDC2A1AD807
:104CA000322818D3B0F5877F15D8A268904200D279
:104CB000024600E047E0A260E268914200D20A4664
:104CC000E2602269904200D9024622616269914203
:104CD00000D90A466261ABF800C0401C7045BBD3E6
:104CE000491CF029B7D31A49002008701E490878DA
:104CF000401C08702269A068811801EBD17149102D
:104D0000A1616369E168CD1805EBD5756D10E561AA
:104D1000151A5E1A3544EE1705EB9675AD109BB269
:104D200092B289B280B22562FBF73CFFA08B94F867
:104D3000202081B2208B80B2FBF750FFBDE8F05FEE
:104D40000020FEF7D7BFBDE8F09F00000000002064
:104D5000340000204C02002000002442140C0140CA
:104D6000001001400008006C370000204FF0E021E7
:104D70000A6922F004020A610649C00800EB4002F9
:104D80000870C2EBC0104FF6FF7202EAC000488004
:104D900070470000240000200849498848434FF02C
:104DA000E021486100238B61012008610869C20786
:104DB00001D0C003FAD50B618B617047240000203D
:104DC0000849097848434FF0E021486100238B618E
:104DD000012008610869C20701D0C003FAD50B6140
:104DE0008B6170472400002004490A885206FCD5D4
:104DF000024AC1B2121D1180704700000038014004
:104E00001CB54FF002094FF0000AC8464E46554601
:104E10000920FFF7ABFD4FF4E131482000F01EF907
:104E20004820FFF7A3FF5B48416848208847FFF709
:104E300039FAFBF761FDFBF7FDFF57494FF4784066
:104E40001024088055A0CDE900402346C822322115
:104E50001E20FFF7EBF955A0CDE900401023C82232
:104E600046211E20FFF7E2F953A0CDE900401023B0
:104E7000C8225A211E20FFF7D9F953A0CDE90040DE
:104E80001023C8226E211E20FFF7D0F951A0CDE9D2
:104E900000401023C82282211E20FFF7C7F951A02D
:104EA000CDE900401023C82296211E20FFF7BEF94D
:104EB00050A0CDE900401023C822AA211E20FFF7F0
:104EC000B5F950A0CDE900401023C822BE211E2014
:104ED000FFF7ACF94FA0CDE900401023C822D22142
:104EE0001E20FFF7A3F94FA0CDE900401023C822F0
:104EF000E6211E20FFF79AF94FF6FF7715E04DA047
:104F0000CDE900401023C822E6211E20FFF78EF9CC
:104F1000C820FFF741FFF623EF22E6211E2000976D
:104F2000FBF742FFC820FFF737FFFFF7B1FA002871
:104F3000E5D144A0CDE900401023C822E6211E207F
:104F4000FFF774F940F2DC50FFF726FF5046FFF7F9
:104F50002FFB4846FFF74FFA4046FFF739FA304635
:104F6000FFF782FA2846FFF74CFBFBF749FC4FF4AA
:104F7000A073F022B0210C20FFF76DFB3549002013
:104F8000C1F8BC01FBF7E4FC0020FFF73AFBFFF798
:104F900003FEF9E7900000203000002057617253B3
:104FA0006869702053544D33320000004F56373635
:104FB000373020544553540041544F4D40414C49E3
:104FC000454E54454B000000323031352F312F31E2
:104FD000380000004B4559303A4C69676874204DE1
:104FE0006F6465004B4559313A5361747572617451
:104FF000696F6E004B4559323A4272696768746E48
:10500000657373004B45595F55503A436F6E747228
:1050100061737400545041443A4566666563747325
:10502000000000004F563736373020496E69742E25
:105030002E2E00004F5637363730204572726F7271
:10504000212100004F563736373020496E697420D1
:105050004F4B0000000024420068704770B50446C2
:10506000080101F05DFA05462448604301F058FA52
:10507000294601F073F9054601F032FA84B2204660
:1050800001F04EFA294601F0A9FA042101F057FB7C
:1050900001F026FA4FF6FF7101EA04110A181848C8
:1050A000816941F004018161816941F4804181613C
:1050B00014490B6823F47F630B600B6843F40B63A4
:1050C0000B60C16841F48041C160C16821F4804136
:1050D000C1600D480280001D018842F20C0211439C
:1050E0000180018841F020010180BDE87040022369
:1050F000252203210846FFF729B9000040420F008E
:1051000000100240040801400838014070B594B016
:10511000064613AB11AA694600F0DCF9002824D139
:105120008DF840001D4C042514E0206805EBC101FA
:1051300013AB405812AA08A900F0CCF9002814D1EA
:10514000694608A800F003FC88B19DF84000401CA7
:105150008DF84000207D9DF840108842E5D8207DE4
:105160009DF8401088420ED1042014B070BD9DF807
:1051700048009DF84410884201D90220F5E79DF8C7
:105180004000A075EBE710A9304600F057FA002860
:10519000EBD19DF8400060750020E6E7900000200C
:1051A0002DE9F0417E4E9AB0B57D307DA8427CD984
:1051B0000421306801EBC50119AB405818AA10A9A9
:1051C00000F088F910A977A0FBF74CF800240DF146
:1051D000180832E0308B0121A140084217D022216B
:1051E00072A0FBF73FF8204600F090FA811970A0FA
:1051F0002431FBF737F822216CA0FBF733F8204667
:1052000000F084FA3044243048F824000BE02046B3
:1052100000F07CFA3044416A48F82410F07D00B375
:1052200064A0FBF71FF89DF86000401E844202D086
:1052300062A0FBF717F8641CE4B29DF8600084429A
:10524000C8D35FA0FBF70EF800F0A6FA707D0B281C
:1052500014D2DFE800F0080D31384048525E6B7818
:10526000890058A0DDE7306850F83500804704E039
:10527000306850F8351006988847074600F058FA0D
:105280009DF8640001286ED04FA0FAF7EBFF96F866
:10529000EC0000280DD0D6F8F0000A21B0FBF1F2A6
:1052A00001FB1202B0FBF1F100E002E047A0FAF7C7
:1052B000D9FF1AB0BDE8F081306850F83520DDE93B
:1052C00006019047D9E7306806AC50F8353094E8CD
:1052D00007009847D1E7306806AF50F8354097E8A7
:1052E0000F00A047C9E70A980090306806AF50F851
:1052F000354097E80F00A047BFE7DDE90A01CDE997
:105300000001306806AF50F8354097E80F00A0471D
:10531000B3E70AAB06AF93E807008DE807003068F3
:1053200050F8354097E80F00A047A6E70AAC06AF53
:1053300094E80F008DE80F00306850F8354097E88A
:105340000F00A04799E70BAC06AF94E80F0001AC43
:1053500084E80F000A980090306850F8354097E8CC
:105360000F00A04789E711E00CAC06AF94E80F00EE
:1053700002AC84E80F00DDE90A01CDE900013068E4
:1053800050F8354097E80F00A04776E7F07D3946A2
:1053900018B116A0FAF766FF79E717A0FAE7000040
:1053A000900000200D0A25732800000025630000EE
:1053B0002573000030582558000000002C00000024
:1053C00029000000256C64003B0D0A0046756E63E1
:1053D00074696F6E2052756E2054696D653A25644C
:1053E0002E2531646D730D0A000000003D305825F4
:1053F000583B0D0A000000003D256C753B0D0A006E
:10540000F0B500252E462F462C4603782C2B03D0D2
:10541000292B04D01BB103E014B9012600E00CB322
:1054200017B1222B2AD02AE0A3F1300CBCF1090FCE
:1054300019D92D2B17D02B2B15D0A3F1610CBCF152
:10544000050F10D9A3F1410CBCF1050F0BD9582B56
:1054500009D0782B07D0222B0CD0202B1ED02C2B40
:105460001CD0FF270CE05EB9612B00D3203B01F874
:10547000013B13E026B901273C460FE0002426B18A
:105480000020087017702846F0BD3CB15C2B02D19B
:105490006D1CEDB2401C037801F8013B6D1CEDB2B0
:1054A000401CB2E730B5002515700AE001F8014B49
:1054B0001478401C641CE4B214709C4201D3012097
:1054C00030BD0478202C01D0002CEFD10D700020CD
:1054D00030BD00002DE9FF4F002482B08946984678
:1054E000A2462746012526462246EB46029915E0AC
:1054F000202810D002F07F03052B0CD202B98022A5
:1055000002F07F03042B01D12A280AD1521C0BF888
:105510000300D2B201E0852A04D0491C0878002893
:10552000E6D16AB102F07F0200200BF8020041A12F
:10553000584600F00CFA38B1012188F8001000221A
:105540004FF00008029B15E0002088F80000F6E705
:1055500008F1010000F0FF0813F8010F202801D026
:105560002A2807D1184600F07FF9282802D02A28D7
:1055700000D0C2461878282801D00028E8D1029926
:10558000BAF1000F01D05144491C4FF000084346C6
:10559000087888B1282804D0292806D0222810D0DD
:1055A00011E083B9641CE4B20DE063B924B1641E58
:1055B00014F0FF0402D00DE04FF00108012F27D0B6
:1055C0002FE04BB100234CB12C280CD0202816D052
:1055D000282814D05AB110E00123F4E7202815D070
:1055E00009F8010B12E00125521CD2B207E0052E8A
:1055F00003D20BF80600761CF6B26D1CEDB2012C3E
:1056000004D1022D02D103257F1CFFB2491CBFE744
:1056100000200BF8060007A1684600F098F900B9D1
:10562000002704980770002089F8000006B0404663
:10563000BDE8F08F766F6964000000002DE9F0434B
:1056400000248946304DB5B0214622466B18491CCE
:10565000C9B29A760A29F9D302E010F8011F99B16C
:1056600001782829F9D1461C4FF0010833AA694670
:105670003046FFF7C5FE06449DF8CC0040B1012836
:1056800024D0FF2836D10BE0012035B0BDE8F083EF
:105690009DF8000070B334A9684600F0EDF808B139
:1056A0000220F2E7204600F031F8284434994162A4
:1056B000298B08FA04F0814329830420291988766C
:1056C000641CE4B20A2C15D90320DEE7684600F01A
:1056D00053F9471C204600F019F841196846243157
:1056E00000F041F9298B08FA04F0014328192983B5
:1056F0008776E5E73078292801D00028B6D189F8E7
:1057000000400020C1E7000090000020024610B5D4
:1057100000200146054B05E05C18491CA47EC9B277
:105720002044C0B29142F7D310BD00009000002089
:10573000094800880949C007D1F8F00004D04FF6A5
:10574000FF721044C1F8F000034A1432128810446A
:10575000C1F8F000704700001008004090000020E1
:1057600000EBC00101EB00104FF0FF3101EB8000B6
:1057700010B581B24FF47A70FFF7B8F901490120F2
:10578000C87510BD900000200346012000E058437A
:10579000491EC9B2FBD270470848018821F00101B7
:1057A000018006494FF6FF701C3108800349002034
:1057B000143108800249C1F8F00070471008004019
:1057C000900000202DE9F041164E3088010426D5C6
:1057D0001549C0B2154F00250D54B96812488847C5
:1057E00004000FD0104800F0D1F8012801D00400C7
:1057F00014D0012C09D0022C09D0032C09D0042C80
:105800000CD108E0F868804708E009A004E00BA08C
:1058100002E00DA000E00FA0FAF724FD3580BDE8FE
:10582000F08100002800002084010020900000206A
:10583000BAAFCAFDB4EDCEF3210D0A00B2CECAFD57
:10584000B4EDCEF3210D0A00B2CECAFDCCABB6E06A
:10585000210D0A00CEB4D5D2B5BDC6A5C5E4B5C4E8
:10586000BAAFCAFD210D0A0010F8011F202901D18D
:105870000028F9D1C8B270472DE9F0430E46002444
:105880004FF00A082546014634600A78A2F1300339
:10589000092B14D903782D2B01D02B2B00D174B1F7
:1058A000A2F14103052B0AD9582A05D012F0FF0FA7
:1058B00017D00120BDE8F083012C02D0F9E7412A7E
:1058C00001D34FF0100802782D2A04D02B2A04D0DF
:1058D000641CE4B203E0022500E00125401C491CE1
:1058E000D3E70746B8F1100F01D084B112E0032CC2
:1058F00001D20220DEE73878302802D178785828A3
:1059000001D00320D6E7A41EE4B2BF1C01E00420AE
:10591000D0E70CB1641EE4B238780146303809286B
:1059200001D8814601E0A1F1370921464046FFF741
:105930002BFF326809FB0020306017F8011F002997
:10594000E7D1022D01D1404230600020B2E7027859
:105950000B789A4201D00120704712B1401C491CBB
:10596000F5E70020704702780A700278002A02D01A
:10597000401C491CF7E77047002102781AB1491C06
:10598000C9B2401CF9E7084670470000F0B58DB079
:1059900004461E2308AA6946FFF784FD09900028E3
:1059A00072D19DF82000271800253E4C8DF820501C
:1059B0009DF8200054F820106846FFF7C8FF38B162
:1059C0009DF82000401CC0B28DF820000728EFD3BE
:1059D0009DF820000426344C072855D2DFE800F05B
:1059E0000404395A605F5E0030A0FAF73BFC30A037
:1059F000FAF738FC3EA0FAF735FC4DA0FAF732FC76
:105A00005BA0FAF72FFC6AA0FAF72CFC78A0FAF753
:105A100029FC86A0FAF726FC8BA0FAF723FC93A0BA
:105A2000FAF720FC97A0FAF71DFC9CA0FAF71AFCE5
:105A3000A1A0FAF717FCA7A0FAF714FCB3A0FAF795
:105A400011FCC0A0FAF70EFCCBA0FAF70BFCD7A014
:105A50001BE016A0FAF706FCE4A0FAF703FC8DF8A9
:105A600020500BE0216806EBC0000958EFA0FAF7C0
:105A7000F9FB9DF82000401C8DF82000217D9DF849
:105A800020008142EED856E257E2FAF7EBFB002005
:105A90000DB0F0BD05A0FAF7E5FBCBE12CE20CE27E
:105AA000EBE100003C000020900000200D0A000007
:105AB0002D2D2D2D2D2D2D2D2D2D2D2D2D2D2D2D16
:105AC0002D2D2D2D2D2D2D2D55534D41525420561C
:105AD000332E322D2D2D2D2D2D2D2D2D2D2D2D2DEA
